00001as dasd asd                                       000000000000000000000000000000asd asd  qualquer                                                                                                                                                                                                                                                                                                                                                                                                                                                                                                   00000
00003asd asd asd asd asd                               000000000000000000000000000000asd asd asd  qualsdaasquer                                                                                                                                                                                                                                                                                                                                                                                                                                                                                          00000
00000NU                                                000000000000000000000000000000                                                                                                                                                                                                                                                                                                                                                                                                                                                                                                                    00000
00004Moi ses                                           000000000000004000000000045454ads sad asda qualsdaasquer                                                                                                                                                                                                                                                                                                                                                                                                                                                                                          00000
00000NU                                                000000000000000000000000000000                                                                                                                                                                                                                                                                                                                                                                                                                                                                                                                    00000
